{
  "_format": "hh-sol-artifact-1",
  "contractName": "TimeLock",
  "sourceName": "contracts/TimeLock.sol",
  "abi": [
    {
      "inputs": [],
      "name": "DURATION",
      "outputs": [
        {
          "internalType": "uint256",
          "name": "",
          "type": "uint256"
        }
      ],
      "stateMutability": "view",
      "type": "function"
    },
    {
      "inputs": [
        {
          "internalType": "address",
          "name": "",
          "type": "address"
        }
      ],
      "name": "accounts",
      "outputs": [
        {
          "internalType": "uint256",
          "name": "balance",
          "type": "uint256"
        },
        {
          "internalType": "uint256",
          "name": "lastDeposite",
          "type": "uint256"
        }
      ],
      "stateMutability": "view",
      "type": "function"
    },
    {
      "inputs": [],
      "name": "deposite",
      "outputs": [],
      "stateMutability": "payable",
      "type": "function"
    },
    {
      "inputs": [],
      "name": "withdraw",
      "outputs": [],
      "stateMutability": "nonpayable",
      "type": "function"
    }
  ],
  "bytecode": "0x60806040526201518060005534801561001757600080fd5b50610545806100276000396000f3fe60806040526004361061003f5760003560e01c80631be05289146100445780633ccfd60b1461006f5780635e5c06e214610086578063a50ec326146100c4575b600080fd5b34801561005057600080fd5b506100596100ce565b6040516100669190610327565b60405180910390f35b34801561007b57600080fd5b506100846100d4565b005b34801561009257600080fd5b506100ad60048036038101906100a891906103a5565b610248565b6040516100bb9291906103d2565b60405180910390f35b6100cc61026c565b005b60005481565b600054600160003373ffffffffffffffffffffffffffffffffffffffff1673ffffffffffffffffffffffffffffffffffffffff1681526020019081526020016000206001015442610125919061042a565b11610165576040517f08c379a000000000000000000000000000000000000000000000000000000000815260040161015c906104bb565b60405180910390fd5b6000600160003373ffffffffffffffffffffffffffffffffffffffff1673ffffffffffffffffffffffffffffffffffffffff168152602001908152602001600020600001549050600160003373ffffffffffffffffffffffffffffffffffffffff1673ffffffffffffffffffffffffffffffffffffffff168152602001908152602001600020600080820160009055600182016000905550503373ffffffffffffffffffffffffffffffffffffffff166108fc829081150290604051600060405180830381858888f19350505050158015610244573d6000803e3d6000fd5b5050565b60016020528060005260406000206000915090508060000154908060010154905082565b34600160003373ffffffffffffffffffffffffffffffffffffffff1673ffffffffffffffffffffffffffffffffffffffff16815260200190815260200160002060000160008282546102be91906104db565b9250508190555042600160003373ffffffffffffffffffffffffffffffffffffffff1673ffffffffffffffffffffffffffffffffffffffff16815260200190815260200160002060010181905550565b6000819050919050565b6103218161030e565b82525050565b600060208201905061033c6000830184610318565b92915050565b600080fd5b600073ffffffffffffffffffffffffffffffffffffffff82169050919050565b600061037282610347565b9050919050565b61038281610367565b811461038d57600080fd5b50565b60008135905061039f81610379565b92915050565b6000602082840312156103bb576103ba610342565b5b60006103c984828501610390565b91505092915050565b60006040820190506103e76000830185610318565b6103f46020830184610318565b9392505050565b7f4e487b7100000000000000000000000000000000000000000000000000000000600052601160045260246000fd5b60006104358261030e565b91506104408361030e565b9250828203905081811115610458576104576103fb565b5b92915050565b600082825260208201905092915050565b7f63616e2774207769746472617720796574000000000000000000000000000000600082015250565b60006104a560118361045e565b91506104b08261046f565b602082019050919050565b600060208201905081810360008301526104d481610498565b9050919050565b60006104e68261030e565b91506104f18361030e565b9250828201905080821115610509576105086103fb565b5b9291505056fea2646970667358221220ee3157b919849ac506e9bed55f70bdab8af9d88bd98deb685eccd9ac0647eac964736f6c63430008110033",
  "linkReferences": {},
  "deployedLinkReferences": {}
}