{
  "_format": "hh-sol-artifact-1",
  "contractName": "ExternalReturn",
  "sourceName": "contracts/ExternalReturn.sol",
  "abi": [
    {
      "inputs": [],
      "stateMutability": "nonpayable",
      "type": "constructor"
    },
    {
      "anonymous": false,
      "inputs": [
        {
          "indexed": true,
          "internalType": "address",
          "name": "_vip",
          "type": "address"
        }
      ],
      "name": "ImportantMess",
      "type": "event"
    },
    {
      "anonymous": false,
      "inputs": [
        {
          "indexed": false,
          "internalType": "address",
          "name": "_Special",
          "type": "address"
        }
      ],
      "name": "Message",
      "type": "event"
    },
    {
      "anonymous": false,
      "inputs": [],
      "name": "empty",
      "type": "event"
    },
    {
      "inputs": [],
      "name": "Empty",
      "outputs": [],
      "stateMutability": "nonpayable",
      "type": "function"
    },
    {
      "inputs": [],
      "name": "Owner",
      "outputs": [
        {
          "internalType": "address",
          "name": "",
          "type": "address"
        }
      ],
      "stateMutability": "view",
      "type": "function"
    },
    {
      "inputs": [
        {
          "internalType": "address",
          "name": "_from",
          "type": "address"
        },
        {
          "internalType": "address",
          "name": "_to",
          "type": "address"
        },
        {
          "internalType": "uint256",
          "name": "amount",
          "type": "uint256"
        }
      ],
      "name": "Transfer",
      "outputs": [
        {
          "internalType": "bool",
          "name": "",
          "type": "bool"
        }
      ],
      "stateMutability": "nonpayable",
      "type": "function"
    },
    {
      "inputs": [
        {
          "internalType": "address",
          "name": "_address",
          "type": "address"
        }
      ],
      "name": "changeAdmin",
      "outputs": [],
      "stateMutability": "nonpayable",
      "type": "function"
    },
    {
      "inputs": [],
      "name": "checkBalance",
      "outputs": [
        {
          "internalType": "uint256",
          "name": "",
          "type": "uint256"
        }
      ],
      "stateMutability": "view",
      "type": "function"
    },
    {
      "inputs": [],
      "name": "special",
      "outputs": [],
      "stateMutability": "nonpayable",
      "type": "function"
    },
    {
      "inputs": [],
      "name": "vip",
      "outputs": [],
      "stateMutability": "nonpayable",
      "type": "function"
    }
  ],
  "bytecode": "0x608060405234801561001057600080fd5b50336000806101000a81548173ffffffffffffffffffffffffffffffffffffffff021916908373ffffffffffffffffffffffffffffffffffffffff16021790555061062c806100606000396000f3fe608060405234801561001057600080fd5b506004361061007d5760003560e01c8063b4a99a4e1161005b578063b4a99a4e146100b2578063c71daccb146100d0578063ce9a3b0f146100ee578063ddf252ad146100f85761007d565b80633db2a12a14610082578063853bab711461008c5780638f28397014610096575b600080fd5b61008a610128565b005b610094610156565b005b6100b060048036038101906100ab91906103d6565b61019b565b005b6100ba61026c565b6040516100c79190610412565b60405180910390f35b6100d8610290565b6040516100e59190610446565b60405180910390f35b6100f66102d7565b005b610112600480360381019061010d919061048d565b610310565b60405161011f91906104fb565b60405180910390f35b7ff2a75fe4d7cd25bbe769d566fbf5a20c67283479ab765ae5857c5ba963305b5560405160405180910390a1565b3373ffffffffffffffffffffffffffffffffffffffff167f36c5003d35ffd39f00a89de1e88f292ef09bb3c6d268b208de1c28700a55da3160405160405180910390a2565b60008054906101000a900473ffffffffffffffffffffffffffffffffffffffff1673ffffffffffffffffffffffffffffffffffffffff163373ffffffffffffffffffffffffffffffffffffffff1614610229576040517f08c379a000000000000000000000000000000000000000000000000000000000815260040161022090610573565b60405180910390fd5b806000806101000a81548173ffffffffffffffffffffffffffffffffffffffff021916908373ffffffffffffffffffffffffffffffffffffffff16021790555050565b60008054906101000a900473ffffffffffffffffffffffffffffffffffffffff1681565b6000600160003373ffffffffffffffffffffffffffffffffffffffff1673ffffffffffffffffffffffffffffffffffffffff16815260200190815260200160002054905090565b7f516772d06520d23d2705f0b46a1fa6deec0ae36a2c00db049bd5f4094a123b85336040516103069190610412565b60405180910390a1565b600081600160008573ffffffffffffffffffffffffffffffffffffffff1673ffffffffffffffffffffffffffffffffffffffff168152602001908152602001600020600082825461036191906105c2565b92505081905550600190509392505050565b600080fd5b600073ffffffffffffffffffffffffffffffffffffffff82169050919050565b60006103a382610378565b9050919050565b6103b381610398565b81146103be57600080fd5b50565b6000813590506103d0816103aa565b92915050565b6000602082840312156103ec576103eb610373565b5b60006103fa848285016103c1565b91505092915050565b61040c81610398565b82525050565b60006020820190506104276000830184610403565b92915050565b6000819050919050565b6104408161042d565b82525050565b600060208201905061045b6000830184610437565b92915050565b61046a8161042d565b811461047557600080fd5b50565b60008135905061048781610461565b92915050565b6000806000606084860312156104a6576104a5610373565b5b60006104b4868287016103c1565b93505060206104c5868287016103c1565b92505060406104d686828701610478565b9150509250925092565b60008115159050919050565b6104f5816104e0565b82525050565b600060208201905061051060008301846104ec565b92915050565b600082825260208201905092915050565b7f6f776e657220756e617574686f72697365640000000000000000000000000000600082015250565b600061055d601283610516565b915061056882610527565b602082019050919050565b6000602082019050818103600083015261058c81610550565b9050919050565b7f4e487b7100000000000000000000000000000000000000000000000000000000600052601160045260246000fd5b60006105cd8261042d565b91506105d88361042d565b92508282019050808211156105f0576105ef610593565b5b9291505056fea26469706673582212209c787ca7a07234a834eda78d5277d01098823df9b557baf6273ff578e8f4635364736f6c63430008110033",
  "linkReferences": {},
  "deployedLinkReferences": {}
}