{
  "_format": "hh-sol-artifact-1",
  "contractName": "safeNFT",
  "sourceName": "contracts/safeNft.sol",
  "abi": [
    {
      "inputs": [
        {
          "internalType": "string",
          "name": "tokenName",
          "type": "string"
        },
        {
          "internalType": "string",
          "name": "tokenSymbol",
          "type": "string"
        },
        {
          "internalType": "uint256",
          "name": "_price",
          "type": "uint256"
        }
      ],
      "stateMutability": "nonpayable",
      "type": "constructor"
    },
    {
      "anonymous": false,
      "inputs": [
        {
          "indexed": true,
          "internalType": "address",
          "name": "owner",
          "type": "address"
        },
        {
          "indexed": true,
          "internalType": "address",
          "name": "approved",
          "type": "address"
        },
        {
          "indexed": true,
          "internalType": "uint256",
          "name": "tokenId",
          "type": "uint256"
        }
      ],
      "name": "Approval",
      "type": "event"
    },
    {
      "anonymous": false,
      "inputs": [
        {
          "indexed": true,
          "internalType": "address",
          "name": "owner",
          "type": "address"
        },
        {
          "indexed": true,
          "internalType": "address",
          "name": "operator",
          "type": "address"
        },
        {
          "indexed": false,
          "internalType": "bool",
          "name": "approved",
          "type": "bool"
        }
      ],
      "name": "ApprovalForAll",
      "type": "event"
    },
    {
      "anonymous": false,
      "inputs": [
        {
          "indexed": true,
          "internalType": "address",
          "name": "from",
          "type": "address"
        },
        {
          "indexed": true,
          "internalType": "address",
          "name": "to",
          "type": "address"
        },
        {
          "indexed": true,
          "internalType": "uint256",
          "name": "tokenId",
          "type": "uint256"
        }
      ],
      "name": "Transfer",
      "type": "event"
    },
    {
      "inputs": [
        {
          "internalType": "address",
          "name": "to",
          "type": "address"
        },
        {
          "internalType": "uint256",
          "name": "tokenId",
          "type": "uint256"
        }
      ],
      "name": "approve",
      "outputs": [],
      "stateMutability": "nonpayable",
      "type": "function"
    },
    {
      "inputs": [
        {
          "internalType": "address",
          "name": "owner",
          "type": "address"
        }
      ],
      "name": "balanceOf",
      "outputs": [
        {
          "internalType": "uint256",
          "name": "",
          "type": "uint256"
        }
      ],
      "stateMutability": "view",
      "type": "function"
    },
    {
      "inputs": [],
      "name": "buyNFT",
      "outputs": [],
      "stateMutability": "payable",
      "type": "function"
    },
    {
      "inputs": [
        {
          "internalType": "address",
          "name": "",
          "type": "address"
        }
      ],
      "name": "canClaim",
      "outputs": [
        {
          "internalType": "bool",
          "name": "",
          "type": "bool"
        }
      ],
      "stateMutability": "view",
      "type": "function"
    },
    {
      "inputs": [],
      "name": "claim",
      "outputs": [],
      "stateMutability": "nonpayable",
      "type": "function"
    },
    {
      "inputs": [
        {
          "internalType": "uint256",
          "name": "tokenId",
          "type": "uint256"
        }
      ],
      "name": "getApproved",
      "outputs": [
        {
          "internalType": "address",
          "name": "",
          "type": "address"
        }
      ],
      "stateMutability": "view",
      "type": "function"
    },
    {
      "inputs": [
        {
          "internalType": "address",
          "name": "owner",
          "type": "address"
        },
        {
          "internalType": "address",
          "name": "operator",
          "type": "address"
        }
      ],
      "name": "isApprovedForAll",
      "outputs": [
        {
          "internalType": "bool",
          "name": "",
          "type": "bool"
        }
      ],
      "stateMutability": "view",
      "type": "function"
    },
    {
      "inputs": [],
      "name": "name",
      "outputs": [
        {
          "internalType": "string",
          "name": "",
          "type": "string"
        }
      ],
      "stateMutability": "view",
      "type": "function"
    },
    {
      "inputs": [
        {
          "internalType": "uint256",
          "name": "tokenId",
          "type": "uint256"
        }
      ],
      "name": "ownerOf",
      "outputs": [
        {
          "internalType": "address",
          "name": "",
          "type": "address"
        }
      ],
      "stateMutability": "view",
      "type": "function"
    },
    {
      "inputs": [
        {
          "internalType": "address",
          "name": "from",
          "type": "address"
        },
        {
          "internalType": "address",
          "name": "to",
          "type": "address"
        },
        {
          "internalType": "uint256",
          "name": "tokenId",
          "type": "uint256"
        }
      ],
      "name": "safeTransferFrom",
      "outputs": [],
      "stateMutability": "nonpayable",
      "type": "function"
    },
    {
      "inputs": [
        {
          "internalType": "address",
          "name": "from",
          "type": "address"
        },
        {
          "internalType": "address",
          "name": "to",
          "type": "address"
        },
        {
          "internalType": "uint256",
          "name": "tokenId",
          "type": "uint256"
        },
        {
          "internalType": "bytes",
          "name": "data",
          "type": "bytes"
        }
      ],
      "name": "safeTransferFrom",
      "outputs": [],
      "stateMutability": "nonpayable",
      "type": "function"
    },
    {
      "inputs": [
        {
          "internalType": "address",
          "name": "operator",
          "type": "address"
        },
        {
          "internalType": "bool",
          "name": "approved",
          "type": "bool"
        }
      ],
      "name": "setApprovalForAll",
      "outputs": [],
      "stateMutability": "nonpayable",
      "type": "function"
    },
    {
      "inputs": [
        {
          "internalType": "bytes4",
          "name": "interfaceId",
          "type": "bytes4"
        }
      ],
      "name": "supportsInterface",
      "outputs": [
        {
          "internalType": "bool",
          "name": "",
          "type": "bool"
        }
      ],
      "stateMutability": "view",
      "type": "function"
    },
    {
      "inputs": [],
      "name": "symbol",
      "outputs": [
        {
          "internalType": "string",
          "name": "",
          "type": "string"
        }
      ],
      "stateMutability": "view",
      "type": "function"
    },
    {
      "inputs": [
        {
          "internalType": "uint256",
          "name": "index",
          "type": "uint256"
        }
      ],
      "name": "tokenByIndex",
      "outputs": [
        {
          "internalType": "uint256",
          "name": "",
          "type": "uint256"
        }
      ],
      "stateMutability": "view",
      "type": "function"
    },
    {
      "inputs": [
        {
          "internalType": "address",
          "name": "owner",
          "type": "address"
        },
        {
          "internalType": "uint256",
          "name": "index",
          "type": "uint256"
        }
      ],
      "name": "tokenOfOwnerByIndex",
      "outputs": [
        {
          "internalType": "uint256",
          "name": "",
          "type": "uint256"
        }
      ],
      "stateMutability": "view",
      "type": "function"
    },
    {
      "inputs": [
        {
          "internalType": "uint256",
          "name": "tokenId",
          "type": "uint256"
        }
      ],
      "name": "tokenURI",
      "outputs": [
        {
          "internalType": "string",
          "name": "",
          "type": "string"
        }
      ],
      "stateMutability": "view",
      "type": "function"
    },
    {
      "inputs": [],
      "name": "totalSupply",
      "outputs": [
        {
          "internalType": "uint256",
          "name": "",
          "type": "uint256"
        }
      ],
      "stateMutability": "view",
      "type": "function"
    },
    {
      "inputs": [
        {
          "internalType": "address",
          "name": "from",
          "type": "address"
        },
        {
          "internalType": "address",
          "name": "to",
          "type": "address"
        },
        {
          "internalType": "uint256",
          "name": "tokenId",
          "type": "uint256"
        }
      ],
      "name": "transferFrom",
      "outputs": [],
      "stateMutability": "nonpayable",
      "type": "function"
    }
  ],
  "bytecode": "0x60806040523480156200001157600080fd5b50604051620038e7380380620038e783398181016040528101906200003791906200023d565b828281600090816200004a919062000518565b5080600190816200005c919062000518565b50505080600a81905550505050620005ff565b6000604051905090565b600080fd5b600080fd5b600080fd5b600080fd5b6000601f19601f8301169050919050565b7f4e487b7100000000000000000000000000000000000000000000000000000000600052604160045260246000fd5b620000d8826200008d565b810181811067ffffffffffffffff82111715620000fa57620000f96200009e565b5b80604052505050565b60006200010f6200006f565b90506200011d8282620000cd565b919050565b600067ffffffffffffffff82111562000140576200013f6200009e565b5b6200014b826200008d565b9050602081019050919050565b60005b83811015620001785780820151818401526020810190506200015b565b60008484015250505050565b60006200019b620001958462000122565b62000103565b905082815260208101848484011115620001ba57620001b962000088565b5b620001c784828562000158565b509392505050565b600082601f830112620001e757620001e662000083565b5b8151620001f984826020860162000184565b91505092915050565b6000819050919050565b620002178162000202565b81146200022357600080fd5b50565b60008151905062000237816200020c565b92915050565b60008060006060848603121562000259576200025862000079565b5b600084015167ffffffffffffffff8111156200027a57620002796200007e565b5b6200028886828701620001cf565b935050602084015167ffffffffffffffff811115620002ac57620002ab6200007e565b5b620002ba86828701620001cf565b9250506040620002cd8682870162000226565b9150509250925092565b600081519050919050565b7f4e487b7100000000000000000000000000000000000000000000000000000000600052602260045260246000fd5b600060028204905060018216806200032a57607f821691505b60208210810362000340576200033f620002e2565b5b50919050565b60008190508160005260206000209050919050565b60006020601f8301049050919050565b600082821b905092915050565b600060088302620003aa7fffffffffffffffffffffffffffffffffffffffffffffffffffffffffffffffff826200036b565b620003b686836200036b565b95508019841693508086168417925050509392505050565b6000819050919050565b6000620003f9620003f3620003ed8462000202565b620003ce565b62000202565b9050919050565b6000819050919050565b6200041583620003d8565b6200042d620004248262000400565b84845462000378565b825550505050565b600090565b6200044462000435565b620004518184846200040a565b505050565b5b8181101562000479576200046d6000826200043a565b60018101905062000457565b5050565b601f821115620004c857620004928162000346565b6200049d846200035b565b81016020851015620004ad578190505b620004c5620004bc856200035b565b83018262000456565b50505b505050565b600082821c905092915050565b6000620004ed60001984600802620004cd565b1980831691505092915050565b6000620005088383620004da565b9150826002028217905092915050565b6200052382620002d7565b67ffffffffffffffff8111156200053f576200053e6200009e565b5b6200054b825462000311565b620005588282856200047d565b600060209050601f8311600181146200059057600084156200057b578287015190505b620005878582620004fa565b865550620005f7565b601f198416620005a08662000346565b60005b82811015620005ca57848901518255600182019150602085019450602081019050620005a3565b86831015620005ea5784890151620005e6601f891682620004da565b8355505b6001600288020188555050505b505050505050565b6132d8806200060f6000396000f3fe6080604052600436106101145760003560e01c80634f6ccce7116100a0578063b88d4fde11610064578063b88d4fde146103c3578063bf3506c1146103ec578063bff29cee14610429578063c87b56dd14610433578063e985e9c51461047057610114565b80634f6ccce7146102b85780636352211e146102f557806370a082311461033257806395d89b411461036f578063a22cb4651461039a57610114565b806318160ddd116100e757806318160ddd146101e757806323b872dd146102125780632f745c591461023b57806342842e0e146102785780634e71d92d146102a157610114565b806301ffc9a71461011957806306fdde0314610156578063081812fc14610181578063095ea7b3146101be575b600080fd5b34801561012557600080fd5b50610140600480360381019061013b9190612251565b6104ad565b60405161014d9190612299565b60405180910390f35b34801561016257600080fd5b5061016b610527565b6040516101789190612344565b60405180910390f35b34801561018d57600080fd5b506101a860048036038101906101a3919061239c565b6105b9565b6040516101b5919061240a565b60405180910390f35b3480156101ca57600080fd5b506101e560048036038101906101e09190612451565b6105ff565b005b3480156101f357600080fd5b506101fc610716565b60405161020991906124a0565b60405180910390f35b34801561021e57600080fd5b50610239600480360381019061023491906124bb565b610723565b005b34801561024757600080fd5b50610262600480360381019061025d9190612451565b610783565b60405161026f91906124a0565b60405180910390f35b34801561028457600080fd5b5061029f600480360381019061029a91906124bb565b610828565b005b3480156102ad57600080fd5b506102b6610848565b005b3480156102c457600080fd5b506102df60048036038101906102da919061239c565b61093f565b6040516102ec91906124a0565b60405180910390f35b34801561030157600080fd5b5061031c6004803603810190610317919061239c565b6109b0565b604051610329919061240a565b60405180910390f35b34801561033e57600080fd5b506103596004803603810190610354919061250e565b610a36565b60405161036691906124a0565b60405180910390f35b34801561037b57600080fd5b50610384610aed565b6040516103919190612344565b60405180910390f35b3480156103a657600080fd5b506103c160048036038101906103bc9190612567565b610b7f565b005b3480156103cf57600080fd5b506103ea60048036038101906103e591906126dc565b610b95565b005b3480156103f857600080fd5b50610413600480360381019061040e919061250e565b610bf7565b6040516104209190612299565b60405180910390f35b610431610c17565b005b34801561043f57600080fd5b5061045a6004803603810190610455919061239c565b610cb5565b6040516104679190612344565b60405180910390f35b34801561047c57600080fd5b506104976004803603810190610492919061275f565b610d1d565b6040516104a49190612299565b60405180910390f35b60007f780e9d63000000000000000000000000000000000000000000000000000000007bffffffffffffffffffffffffffffffffffffffffffffffffffffffff1916827bffffffffffffffffffffffffffffffffffffffffffffffffffffffff19161480610520575061051f82610db1565b5b9050919050565b606060008054610536906127ce565b80601f0160208091040260200160405190810160405280929190818152602001828054610562906127ce565b80156105af5780601f10610584576101008083540402835291602001916105af565b820191906000526020600020905b81548152906001019060200180831161059257829003601f168201915b5050505050905090565b60006105c482610e93565b6004600083815260200190815260200160002060009054906101000a900473ffffffffffffffffffffffffffffffffffffffff169050919050565b600061060a826109b0565b90508073ffffffffffffffffffffffffffffffffffffffff168373ffffffffffffffffffffffffffffffffffffffff160361067a576040517f08c379a000000000000000000000000000000000000000000000000000000000815260040161067190612871565b60405180910390fd5b8073ffffffffffffffffffffffffffffffffffffffff16610699610ede565b73ffffffffffffffffffffffffffffffffffffffff1614806106c857506106c7816106c2610ede565b610d1d565b5b610707576040517f08c379a00000000000000000000000000000000000000000000000000000000081526004016106fe90612903565b60405180910390fd5b6107118383610ee6565b505050565b6000600880549050905090565b61073461072e610ede565b82610f9f565b610773576040517f08c379a000000000000000000000000000000000000000000000000000000000815260040161076a90612995565b60405180910390fd5b61077e838383611034565b505050565b600061078e83610a36565b82106107cf576040517f08c379a00000000000000000000000000000000000000000000000000000000081526004016107c690612a27565b60405180910390fd5b600660008473ffffffffffffffffffffffffffffffffffffffff1673ffffffffffffffffffffffffffffffffffffffff168152602001908152602001600020600083815260200190815260200160002054905092915050565b61084383838360405180602001604052806000815250610b95565b505050565b600b60003373ffffffffffffffffffffffffffffffffffffffff1673ffffffffffffffffffffffffffffffffffffffff16815260200190815260200160002060009054906101000a900460ff166108d4576040517f08c379a00000000000000000000000000000000000000000000000000000000081526004016108cb90612a93565b60405180910390fd5b6108e5336108e0610716565b61132d565b6000600b60003373ffffffffffffffffffffffffffffffffffffffff1673ffffffffffffffffffffffffffffffffffffffff16815260200190815260200160002060006101000a81548160ff021916908315150217905550565b6000610949610716565b821061098a576040517f08c379a000000000000000000000000000000000000000000000000000000000815260040161098190612b25565b60405180910390fd5b6008828154811061099e5761099d612b45565b5b90600052602060002001549050919050565b6000806109bc8361134b565b9050600073ffffffffffffffffffffffffffffffffffffffff168173ffffffffffffffffffffffffffffffffffffffff1603610a2d576040517f08c379a0000000000000000000000000000000000000000000000000000000008152600401610a2490612bc0565b60405180910390fd5b80915050919050565b60008073ffffffffffffffffffffffffffffffffffffffff168273ffffffffffffffffffffffffffffffffffffffff1603610aa6576040517f08c379a0000000000000000000000000000000000000000000000000000000008152600401610a9d90612c52565b60405180910390fd5b600360008373ffffffffffffffffffffffffffffffffffffffff1673ffffffffffffffffffffffffffffffffffffffff168152602001908152602001600020549050919050565b606060018054610afc906127ce565b80601f0160208091040260200160405190810160405280929190818152602001828054610b28906127ce565b8015610b755780601f10610b4a57610100808354040283529160200191610b75565b820191906000526020600020905b815481529060010190602001808311610b5857829003601f168201915b5050505050905090565b610b91610b8a610ede565b8383611388565b5050565b610ba6610ba0610ede565b83610f9f565b610be5576040517f08c379a0000000000000000000000000000000000000000000000000000000008152600401610bdc90612995565b60405180910390fd5b610bf1848484846114f4565b50505050565b600b6020528060005260406000206000915054906101000a900460ff1681565b34600a5414610c5b576040517f08c379a0000000000000000000000000000000000000000000000000000000008152600401610c5290612cbe565b60405180910390fd5b6001600b60003373ffffffffffffffffffffffffffffffffffffffff1673ffffffffffffffffffffffffffffffffffffffff16815260200190815260200160002060006101000a81548160ff021916908315150217905550565b6060610cc082610e93565b6000610cca611550565b90506000815111610cea5760405180602001604052806000815250610d15565b80610cf484611567565b604051602001610d05929190612d1a565b6040516020818303038152906040525b915050919050565b6000600560008473ffffffffffffffffffffffffffffffffffffffff1673ffffffffffffffffffffffffffffffffffffffff16815260200190815260200160002060008373ffffffffffffffffffffffffffffffffffffffff1673ffffffffffffffffffffffffffffffffffffffff16815260200190815260200160002060009054906101000a900460ff16905092915050565b60007f80ac58cd000000000000000000000000000000000000000000000000000000007bffffffffffffffffffffffffffffffffffffffffffffffffffffffff1916827bffffffffffffffffffffffffffffffffffffffffffffffffffffffff19161480610e7c57507f5b5e139f000000000000000000000000000000000000000000000000000000007bffffffffffffffffffffffffffffffffffffffffffffffffffffffff1916827bffffffffffffffffffffffffffffffffffffffffffffffffffffffff1916145b80610e8c5750610e8b82611635565b5b9050919050565b610e9c8161169f565b610edb576040517f08c379a0000000000000000000000000000000000000000000000000000000008152600401610ed290612bc0565b60405180910390fd5b50565b600033905090565b816004600083815260200190815260200160002060006101000a81548173ffffffffffffffffffffffffffffffffffffffff021916908373ffffffffffffffffffffffffffffffffffffffff160217905550808273ffffffffffffffffffffffffffffffffffffffff16610f59836109b0565b73ffffffffffffffffffffffffffffffffffffffff167f8c5be1e5ebec7d5bd14f71427d1e84f3dd0314c0f7b2291e5b200ac8c7c3b92560405160405180910390a45050565b600080610fab836109b0565b90508073ffffffffffffffffffffffffffffffffffffffff168473ffffffffffffffffffffffffffffffffffffffff161480610fed5750610fec8185610d1d565b5b8061102b57508373ffffffffffffffffffffffffffffffffffffffff16611013846105b9565b73ffffffffffffffffffffffffffffffffffffffff16145b91505092915050565b8273ffffffffffffffffffffffffffffffffffffffff16611054826109b0565b73ffffffffffffffffffffffffffffffffffffffff16146110aa576040517f08c379a00000000000000000000000000000000000000000000000000000000081526004016110a190612db0565b60405180910390fd5b600073ffffffffffffffffffffffffffffffffffffffff168273ffffffffffffffffffffffffffffffffffffffff1603611119576040517f08c379a000000000000000000000000000000000000000000000000000000000815260040161111090612e42565b60405180910390fd5b61112683838360016116e0565b8273ffffffffffffffffffffffffffffffffffffffff16611146826109b0565b73ffffffffffffffffffffffffffffffffffffffff161461119c576040517f08c379a000000000000000000000000000000000000000000000000000000000815260040161119390612db0565b60405180910390fd5b6004600082815260200190815260200160002060006101000a81549073ffffffffffffffffffffffffffffffffffffffff02191690556001600360008573ffffffffffffffffffffffffffffffffffffffff1673ffffffffffffffffffffffffffffffffffffffff168152602001908152602001600020600082825403925050819055506001600360008473ffffffffffffffffffffffffffffffffffffffff1673ffffffffffffffffffffffffffffffffffffffff16815260200190815260200160002060008282540192505081905550816002600083815260200190815260200160002060006101000a81548173ffffffffffffffffffffffffffffffffffffffff021916908373ffffffffffffffffffffffffffffffffffffffff160217905550808273ffffffffffffffffffffffffffffffffffffffff168473ffffffffffffffffffffffffffffffffffffffff167fddf252ad1be2c89b69c2b068fc378daa952ba7f163c4a11628f55a4df523b3ef60405160405180910390a4611328838383600161183e565b505050565b611347828260405180602001604052806000815250611844565b5050565b60006002600083815260200190815260200160002060009054906101000a900473ffffffffffffffffffffffffffffffffffffffff169050919050565b8173ffffffffffffffffffffffffffffffffffffffff168373ffffffffffffffffffffffffffffffffffffffff16036113f6576040517f08c379a00000000000000000000000000000000000000000000000000000000081526004016113ed90612eae565b60405180910390fd5b80600560008573ffffffffffffffffffffffffffffffffffffffff1673ffffffffffffffffffffffffffffffffffffffff16815260200190815260200160002060008473ffffffffffffffffffffffffffffffffffffffff1673ffffffffffffffffffffffffffffffffffffffff16815260200190815260200160002060006101000a81548160ff0219169083151502179055508173ffffffffffffffffffffffffffffffffffffffff168373ffffffffffffffffffffffffffffffffffffffff167f17307eab39ab6107e8899845ad3d59bd9653f200f220920489ca2b5937696c31836040516114e79190612299565b60405180910390a3505050565b6114ff848484611034565b61150b8484848461189f565b61154a576040517f08c379a000000000000000000000000000000000000000000000000000000000815260040161154190612f40565b60405180910390fd5b50505050565b606060405180602001604052806000815250905090565b60606000600161157684611a26565b01905060008167ffffffffffffffff811115611595576115946125b1565b5b6040519080825280601f01601f1916602001820160405280156115c75781602001600182028036833780820191505090505b509050600082602001820190505b60011561162a578080600190039150507f3031323334353637383961626364656600000000000000000000000000000000600a86061a8153600a858161161e5761161d612f60565b5b049450600085036115d5575b819350505050919050565b60007f01ffc9a7000000000000000000000000000000000000000000000000000000007bffffffffffffffffffffffffffffffffffffffffffffffffffffffff1916827bffffffffffffffffffffffffffffffffffffffffffffffffffffffff1916149050919050565b60008073ffffffffffffffffffffffffffffffffffffffff166116c18361134b565b73ffffffffffffffffffffffffffffffffffffffff1614159050919050565b6116ec84848484611b79565b6001811115611730576040517f08c379a000000000000000000000000000000000000000000000000000000000815260040161172790613001565b60405180910390fd5b6000829050600073ffffffffffffffffffffffffffffffffffffffff168573ffffffffffffffffffffffffffffffffffffffff16036117775761177281611c9f565b6117b6565b8373ffffffffffffffffffffffffffffffffffffffff168573ffffffffffffffffffffffffffffffffffffffff16146117b5576117b48582611ce8565b5b5b600073ffffffffffffffffffffffffffffffffffffffff168473ffffffffffffffffffffffffffffffffffffffff16036117f8576117f381611e55565b611837565b8473ffffffffffffffffffffffffffffffffffffffff168473ffffffffffffffffffffffffffffffffffffffff1614611836576118358482611f26565b5b5b5050505050565b50505050565b61184e8383611fa5565b61185b600084848461189f565b61189a576040517f08c379a000000000000000000000000000000000000000000000000000000000815260040161189190612f40565b60405180910390fd5b505050565b60006118c08473ffffffffffffffffffffffffffffffffffffffff166121c2565b15611a19578373ffffffffffffffffffffffffffffffffffffffff1663150b7a026118e9610ede565b8786866040518563ffffffff1660e01b815260040161190b9493929190613076565b6020604051808303816000875af192505050801561194757506040513d601f19601f8201168201806040525081019061194491906130d7565b60015b6119c9573d8060008114611977576040519150601f19603f3d011682016040523d82523d6000602084013e61197c565b606091505b5060008151036119c1576040517f08c379a00000000000000000000000000000000000000000000000000000000081526004016119b890612f40565b60405180910390fd5b805181602001fd5b63150b7a0260e01b7bffffffffffffffffffffffffffffffffffffffffffffffffffffffff1916817bffffffffffffffffffffffffffffffffffffffffffffffffffffffff191614915050611a1e565b600190505b949350505050565b600080600090507a184f03e93ff9f4daa797ed6e38ed64bf6a1f0100000000000000008310611a84577a184f03e93ff9f4daa797ed6e38ed64bf6a1f0100000000000000008381611a7a57611a79612f60565b5b0492506040810190505b6d04ee2d6d415b85acef81000000008310611ac1576d04ee2d6d415b85acef81000000008381611ab757611ab6612f60565b5b0492506020810190505b662386f26fc100008310611af057662386f26fc100008381611ae657611ae5612f60565b5b0492506010810190505b6305f5e1008310611b19576305f5e1008381611b0f57611b0e612f60565b5b0492506008810190505b6127108310611b3e576127108381611b3457611b33612f60565b5b0492506004810190505b60648310611b615760648381611b5757611b56612f60565b5b0492506002810190505b600a8310611b70576001810190505b80915050919050565b6001811115611c9957600073ffffffffffffffffffffffffffffffffffffffff168473ffffffffffffffffffffffffffffffffffffffff1614611c0d5780600360008673ffffffffffffffffffffffffffffffffffffffff1673ffffffffffffffffffffffffffffffffffffffff1681526020019081526020016000206000828254611c059190613133565b925050819055505b600073ffffffffffffffffffffffffffffffffffffffff168373ffffffffffffffffffffffffffffffffffffffff1614611c985780600360008573ffffffffffffffffffffffffffffffffffffffff1673ffffffffffffffffffffffffffffffffffffffff1681526020019081526020016000206000828254611c909190613167565b925050819055505b5b50505050565b6008805490506009600083815260200190815260200160002081905550600881908060018154018082558091505060019003906000526020600020016000909190919091505550565b60006001611cf584610a36565b611cff9190613133565b9050600060076000848152602001908152602001600020549050818114611de4576000600660008673ffffffffffffffffffffffffffffffffffffffff1673ffffffffffffffffffffffffffffffffffffffff168152602001908152602001600020600084815260200190815260200160002054905080600660008773ffffffffffffffffffffffffffffffffffffffff1673ffffffffffffffffffffffffffffffffffffffff168152602001908152602001600020600084815260200190815260200160002081905550816007600083815260200190815260200160002081905550505b6007600084815260200190815260200160002060009055600660008573ffffffffffffffffffffffffffffffffffffffff1673ffffffffffffffffffffffffffffffffffffffff16815260200190815260200160002060008381526020019081526020016000206000905550505050565b60006001600880549050611e699190613133565b9050600060096000848152602001908152602001600020549050600060088381548110611e9957611e98612b45565b5b906000526020600020015490508060088381548110611ebb57611eba612b45565b5b906000526020600020018190555081600960008381526020019081526020016000208190555060096000858152602001908152602001600020600090556008805480611f0a57611f0961319b565b5b6001900381819060005260206000200160009055905550505050565b6000611f3183610a36565b905081600660008573ffffffffffffffffffffffffffffffffffffffff1673ffffffffffffffffffffffffffffffffffffffff168152602001908152602001600020600083815260200190815260200160002081905550806007600084815260200190815260200160002081905550505050565b600073ffffffffffffffffffffffffffffffffffffffff168273ffffffffffffffffffffffffffffffffffffffff1603612014576040517f08c379a000000000000000000000000000000000000000000000000000000000815260040161200b90613216565b60405180910390fd5b61201d8161169f565b1561205d576040517f08c379a000000000000000000000000000000000000000000000000000000000815260040161205490613282565b60405180910390fd5b61206b6000838360016116e0565b6120748161169f565b156120b4576040517f08c379a00000000000000000000000000000000000000000000000000000000081526004016120ab90613282565b60405180910390fd5b6001600360008473ffffffffffffffffffffffffffffffffffffffff1673ffffffffffffffffffffffffffffffffffffffff16815260200190815260200160002060008282540192505081905550816002600083815260200190815260200160002060006101000a81548173ffffffffffffffffffffffffffffffffffffffff021916908373ffffffffffffffffffffffffffffffffffffffff160217905550808273ffffffffffffffffffffffffffffffffffffffff16600073ffffffffffffffffffffffffffffffffffffffff167fddf252ad1be2c89b69c2b068fc378daa952ba7f163c4a11628f55a4df523b3ef60405160405180910390a46121be60008383600161183e565b5050565b6000808273ffffffffffffffffffffffffffffffffffffffff163b119050919050565b6000604051905090565b600080fd5b600080fd5b60007fffffffff0000000000000000000000000000000000000000000000000000000082169050919050565b61222e816121f9565b811461223957600080fd5b50565b60008135905061224b81612225565b92915050565b600060208284031215612267576122666121ef565b5b60006122758482850161223c565b91505092915050565b60008115159050919050565b6122938161227e565b82525050565b60006020820190506122ae600083018461228a565b92915050565b600081519050919050565b600082825260208201905092915050565b60005b838110156122ee5780820151818401526020810190506122d3565b60008484015250505050565b6000601f19601f8301169050919050565b6000612316826122b4565b61232081856122bf565b93506123308185602086016122d0565b612339816122fa565b840191505092915050565b6000602082019050818103600083015261235e818461230b565b905092915050565b6000819050919050565b61237981612366565b811461238457600080fd5b50565b60008135905061239681612370565b92915050565b6000602082840312156123b2576123b16121ef565b5b60006123c084828501612387565b91505092915050565b600073ffffffffffffffffffffffffffffffffffffffff82169050919050565b60006123f4826123c9565b9050919050565b612404816123e9565b82525050565b600060208201905061241f60008301846123fb565b92915050565b61242e816123e9565b811461243957600080fd5b50565b60008135905061244b81612425565b92915050565b60008060408385031215612468576124676121ef565b5b60006124768582860161243c565b925050602061248785828601612387565b9150509250929050565b61249a81612366565b82525050565b60006020820190506124b56000830184612491565b92915050565b6000806000606084860312156124d4576124d36121ef565b5b60006124e28682870161243c565b93505060206124f38682870161243c565b925050604061250486828701612387565b9150509250925092565b600060208284031215612524576125236121ef565b5b60006125328482850161243c565b91505092915050565b6125448161227e565b811461254f57600080fd5b50565b6000813590506125618161253b565b92915050565b6000806040838503121561257e5761257d6121ef565b5b600061258c8582860161243c565b925050602061259d85828601612552565b9150509250929050565b600080fd5b600080fd5b7f4e487b7100000000000000000000000000000000000000000000000000000000600052604160045260246000fd5b6125e9826122fa565b810181811067ffffffffffffffff82111715612608576126076125b1565b5b80604052505050565b600061261b6121e5565b905061262782826125e0565b919050565b600067ffffffffffffffff821115612647576126466125b1565b5b612650826122fa565b9050602081019050919050565b82818337600083830152505050565b600061267f61267a8461262c565b612611565b90508281526020810184848401111561269b5761269a6125ac565b5b6126a684828561265d565b509392505050565b600082601f8301126126c3576126c26125a7565b5b81356126d384826020860161266c565b91505092915050565b600080600080608085870312156126f6576126f56121ef565b5b60006127048782880161243c565b94505060206127158782880161243c565b935050604061272687828801612387565b925050606085013567ffffffffffffffff811115612747576127466121f4565b5b612753878288016126ae565b91505092959194509250565b60008060408385031215612776576127756121ef565b5b60006127848582860161243c565b92505060206127958582860161243c565b9150509250929050565b7f4e487b7100000000000000000000000000000000000000000000000000000000600052602260045260246000fd5b600060028204905060018216806127e657607f821691505b6020821081036127f9576127f861279f565b5b50919050565b7f4552433732313a20617070726f76616c20746f2063757272656e74206f776e6560008201527f7200000000000000000000000000000000000000000000000000000000000000602082015250565b600061285b6021836122bf565b9150612866826127ff565b604082019050919050565b6000602082019050818103600083015261288a8161284e565b9050919050565b7f4552433732313a20617070726f76652063616c6c6572206973206e6f7420746f60008201527f6b656e206f776e6572206f7220617070726f76656420666f7220616c6c000000602082015250565b60006128ed603d836122bf565b91506128f882612891565b604082019050919050565b6000602082019050818103600083015261291c816128e0565b9050919050565b7f4552433732313a2063616c6c6572206973206e6f7420746f6b656e206f776e6560008201527f72206f7220617070726f76656400000000000000000000000000000000000000602082015250565b600061297f602d836122bf565b915061298a82612923565b604082019050919050565b600060208201905081810360008301526129ae81612972565b9050919050565b7f455243373231456e756d657261626c653a206f776e657220696e646578206f7560008201527f74206f6620626f756e6473000000000000000000000000000000000000000000602082015250565b6000612a11602b836122bf565b9150612a1c826129b5565b604082019050919050565b60006020820190508181036000830152612a4081612a04565b9050919050565b7f43414e545f4d494e540000000000000000000000000000000000000000000000600082015250565b6000612a7d6009836122bf565b9150612a8882612a47565b602082019050919050565b60006020820190508181036000830152612aac81612a70565b9050919050565b7f455243373231456e756d657261626c653a20676c6f62616c20696e646578206f60008201527f7574206f6620626f756e64730000000000000000000000000000000000000000602082015250565b6000612b0f602c836122bf565b9150612b1a82612ab3565b604082019050919050565b60006020820190508181036000830152612b3e81612b02565b9050919050565b7f4e487b7100000000000000000000000000000000000000000000000000000000600052603260045260246000fd5b7f4552433732313a20696e76616c696420746f6b656e2049440000000000000000600082015250565b6000612baa6018836122bf565b9150612bb582612b74565b602082019050919050565b60006020820190508181036000830152612bd981612b9d565b9050919050565b7f4552433732313a2061646472657373207a65726f206973206e6f74206120766160008201527f6c6964206f776e65720000000000000000000000000000000000000000000000602082015250565b6000612c3c6029836122bf565b9150612c4782612be0565b604082019050919050565b60006020820190508181036000830152612c6b81612c2f565b9050919050565b7f494e56414c49445f56414c554500000000000000000000000000000000000000600082015250565b6000612ca8600d836122bf565b9150612cb382612c72565b602082019050919050565b60006020820190508181036000830152612cd781612c9b565b9050919050565b600081905092915050565b6000612cf4826122b4565b612cfe8185612cde565b9350612d0e8185602086016122d0565b80840191505092915050565b6000612d268285612ce9565b9150612d328284612ce9565b91508190509392505050565b7f4552433732313a207472616e736665722066726f6d20696e636f72726563742060008201527f6f776e6572000000000000000000000000000000000000000000000000000000602082015250565b6000612d9a6025836122bf565b9150612da582612d3e565b604082019050919050565b60006020820190508181036000830152612dc981612d8d565b9050919050565b7f4552433732313a207472616e7366657220746f20746865207a65726f2061646460008201527f7265737300000000000000000000000000000000000000000000000000000000602082015250565b6000612e2c6024836122bf565b9150612e3782612dd0565b604082019050919050565b60006020820190508181036000830152612e5b81612e1f565b9050919050565b7f4552433732313a20617070726f766520746f2063616c6c657200000000000000600082015250565b6000612e986019836122bf565b9150612ea382612e62565b602082019050919050565b60006020820190508181036000830152612ec781612e8b565b9050919050565b7f4552433732313a207472616e7366657220746f206e6f6e20455243373231526560008201527f63656976657220696d706c656d656e7465720000000000000000000000000000602082015250565b6000612f2a6032836122bf565b9150612f3582612ece565b604082019050919050565b60006020820190508181036000830152612f5981612f1d565b9050919050565b7f4e487b7100000000000000000000000000000000000000000000000000000000600052601260045260246000fd5b7f455243373231456e756d657261626c653a20636f6e736563757469766520747260008201527f616e7366657273206e6f7420737570706f727465640000000000000000000000602082015250565b6000612feb6035836122bf565b9150612ff682612f8f565b604082019050919050565b6000602082019050818103600083015261301a81612fde565b9050919050565b600081519050919050565b600082825260208201905092915050565b600061304882613021565b613052818561302c565b93506130628185602086016122d0565b61306b816122fa565b840191505092915050565b600060808201905061308b60008301876123fb565b61309860208301866123fb565b6130a56040830185612491565b81810360608301526130b7818461303d565b905095945050505050565b6000815190506130d181612225565b92915050565b6000602082840312156130ed576130ec6121ef565b5b60006130fb848285016130c2565b91505092915050565b7f4e487b7100000000000000000000000000000000000000000000000000000000600052601160045260246000fd5b600061313e82612366565b915061314983612366565b925082820390508181111561316157613160613104565b5b92915050565b600061317282612366565b915061317d83612366565b925082820190508082111561319557613194613104565b5b92915050565b7f4e487b7100000000000000000000000000000000000000000000000000000000600052603160045260246000fd5b7f4552433732313a206d696e7420746f20746865207a65726f2061646472657373600082015250565b60006132006020836122bf565b915061320b826131ca565b602082019050919050565b6000602082019050818103600083015261322f816131f3565b9050919050565b7f4552433732313a20746f6b656e20616c7265616479206d696e74656400000000600082015250565b600061326c601c836122bf565b915061327782613236565b602082019050919050565b6000602082019050818103600083015261329b8161325f565b905091905056fea264697066735822122033942f5b3dfa99ebf093c311abddd5f4ae23bfac020e1d9bb17df65287b37d0764736f6c63430008110033",
  "linkReferences": {},
  "deployedLinkReferences": {}
}